{
  "_format": "hh-sol-artifact-1",
  "contractName": "Marketplace",
  "sourceName": "contracts/Marketplace.sol",
  "abi": [
    {
      "inputs": [
        {
          "internalType": "uint256",
          "name": "_feePercent",
          "type": "uint256"
        }
      ],
      "stateMutability": "nonpayable",
      "type": "constructor"
    },
    {
      "anonymous": false,
      "inputs": [
        {
          "indexed": false,
          "internalType": "uint256",
          "name": "itemId",
          "type": "uint256"
        },
        {
          "indexed": true,
          "internalType": "address",
          "name": "nft",
          "type": "address"
        },
        {
          "indexed": false,
          "internalType": "uint256",
          "name": "tokenId",
          "type": "uint256"
        },
        {
          "indexed": false,
          "internalType": "uint256",
          "name": "price",
          "type": "uint256"
        },
        {
          "indexed": true,
          "internalType": "address",
          "name": "seller",
          "type": "address"
        },
        {
          "indexed": true,
          "internalType": "address",
          "name": "buyer",
          "type": "address"
        }
      ],
      "name": "Bought",
      "type": "event"
    },
    {
      "anonymous": false,
      "inputs": [
        {
          "indexed": false,
          "internalType": "uint256",
          "name": "itemId",
          "type": "uint256"
        },
        {
          "indexed": true,
          "internalType": "address",
          "name": "nft",
          "type": "address"
        },
        {
          "indexed": false,
          "internalType": "uint256",
          "name": "tokenId",
          "type": "uint256"
        },
        {
          "indexed": false,
          "internalType": "uint256",
          "name": "price",
          "type": "uint256"
        },
        {
          "indexed": true,
          "internalType": "address",
          "name": "seller",
          "type": "address"
        }
      ],
      "name": "Offered",
      "type": "event"
    },
    {
      "inputs": [
        {
          "internalType": "uint256",
          "name": "_itemId",
          "type": "uint256"
        }
      ],
      "name": "buyItem",
      "outputs": [],
      "stateMutability": "payable",
      "type": "function"
    },
    {
      "inputs": [],
      "name": "feeAccount",
      "outputs": [
        {
          "internalType": "address payable",
          "name": "",
          "type": "address"
        }
      ],
      "stateMutability": "view",
      "type": "function"
    },
    {
      "inputs": [],
      "name": "feePercent",
      "outputs": [
        {
          "internalType": "uint256",
          "name": "",
          "type": "uint256"
        }
      ],
      "stateMutability": "view",
      "type": "function"
    },
    {
      "inputs": [
        {
          "internalType": "uint256",
          "name": "_itemId",
          "type": "uint256"
        }
      ],
      "name": "getFinalPrice",
      "outputs": [
        {
          "internalType": "uint256",
          "name": "",
          "type": "uint256"
        }
      ],
      "stateMutability": "view",
      "type": "function"
    },
    {
      "inputs": [
        {
          "internalType": "uint256",
          "name": "_itemId",
          "type": "uint256"
        }
      ],
      "name": "getItemOwner",
      "outputs": [
        {
          "internalType": "address",
          "name": "",
          "type": "address"
        }
      ],
      "stateMutability": "view",
      "type": "function"
    },
    {
      "inputs": [],
      "name": "itemCount",
      "outputs": [
        {
          "internalType": "uint256",
          "name": "",
          "type": "uint256"
        }
      ],
      "stateMutability": "view",
      "type": "function"
    },
    {
      "inputs": [
        {
          "internalType": "uint256",
          "name": "",
          "type": "uint256"
        }
      ],
      "name": "items",
      "outputs": [
        {
          "internalType": "uint256",
          "name": "itemId",
          "type": "uint256"
        },
        {
          "internalType": "contract IERC721",
          "name": "nft",
          "type": "address"
        },
        {
          "internalType": "uint256",
          "name": "tokenId",
          "type": "uint256"
        },
        {
          "internalType": "uint256",
          "name": "price",
          "type": "uint256"
        },
        {
          "internalType": "uint256",
          "name": "listingPrice",
          "type": "uint256"
        },
        {
          "internalType": "address payable",
          "name": "seller",
          "type": "address"
        },
        {
          "internalType": "bool",
          "name": "isSold",
          "type": "bool"
        }
      ],
      "stateMutability": "view",
      "type": "function"
    },
    {
      "inputs": [
        {
          "internalType": "uint256",
          "name": "_itemId",
          "type": "uint256"
        },
        {
          "internalType": "uint256",
          "name": "_price",
          "type": "uint256"
        }
      ],
      "name": "listItem",
      "outputs": [],
      "stateMutability": "nonpayable",
      "type": "function"
    },
    {
      "inputs": [
        {
          "internalType": "contract IERC721",
          "name": "_nft",
          "type": "address"
        },
        {
          "internalType": "uint256",
          "name": "_tokenId",
          "type": "uint256"
        },
        {
          "internalType": "uint256",
          "name": "_price",
          "type": "uint256"
        }
      ],
      "name": "makeItem",
      "outputs": [],
      "stateMutability": "nonpayable",
      "type": "function"
    }
  ],
  "bytecode": "0x60a06040523480156200001157600080fd5b50604051620019b7380380620019b78339818101604052810190620000379190620000cf565b600160008190555033600160006101000a81548173ffffffffffffffffffffffffffffffffffffffff021916908373ffffffffffffffffffffffffffffffffffffffff16021790555080608081815250505062000101565b600080fd5b6000819050919050565b620000a98162000094565b8114620000b557600080fd5b50565b600081519050620000c9816200009e565b92915050565b600060208284031215620000e857620000e76200008f565b5b6000620000f884828501620000b8565b91505092915050565b608051611893620001246000396000818161031b01526103a601526118936000f3fe6080604052600436106100865760003560e01c80637fd6f15c116100595780637fd6f15c1461015b578063883efa6714610186578063bfb231d2146101af578063e7fb74c7146101f2578063fa00afc71461020e57610086565b80631d1440fd1461008b5780634b554954146100c857806365e17c9d146101055780636bfb0d0114610130575b600080fd5b34801561009757600080fd5b506100b260048036038101906100ad9190611006565b610237565b6040516100bf9190611074565b60405180910390f35b3480156100d457600080fd5b506100ef60048036038101906100ea9190611006565b610315565b6040516100fc919061109e565b60405180910390f35b34801561011157600080fd5b5061011a610378565b60405161012791906110da565b60405180910390f35b34801561013c57600080fd5b5061014561039e565b604051610152919061109e565b60405180910390f35b34801561016757600080fd5b506101706103a4565b60405161017d919061109e565b60405180910390f35b34801561019257600080fd5b506101ad60048036038101906101a891906110f5565b6103c8565b005b3480156101bb57600080fd5b506101d660048036038101906101d19190611006565b6107ba565b6040516101e997969594939291906111af565b60405180910390f35b61020c60048036038101906102079190611006565b610849565b005b34801561021a57600080fd5b506102356004803603810190610230919061125c565b610ce3565b005b60006003600083815260200190815260200160002060010160009054906101000a900473ffffffffffffffffffffffffffffffffffffffff1673ffffffffffffffffffffffffffffffffffffffff16636352211e60036000858152602001908152602001600020600201546040518263ffffffff1660e01b81526004016102be919061109e565b60206040518083038186803b1580156102d657600080fd5b505afa1580156102ea573d6000803e3d6000fd5b505050506040513d601f19601f8201168201806040525081019061030e91906112db565b9050919050565b600060647f000000000000000000000000000000000000000000000000000000000000000060646103469190611337565b6003600085815260200190815260200160002060040154610367919061138d565b6103719190611416565b9050919050565b600160009054906101000a900473ffffffffffffffffffffffffffffffffffffffff1681565b60025481565b7f000000000000000000000000000000000000000000000000000000000000000081565b6002600054141561040e576040517f08c379a0000000000000000000000000000000000000000000000000000000008152600401610405906114a4565b60405180910390fd5b60026000819055503373ffffffffffffffffffffffffffffffffffffffff166003600084815260200190815260200160002060010160009054906101000a900473ffffffffffffffffffffffffffffffffffffffff1673ffffffffffffffffffffffffffffffffffffffff16636352211e60036000868152602001908152602001600020600201546040518263ffffffff1660e01b81526004016104b2919061109e565b60206040518083038186803b1580156104ca57600080fd5b505afa1580156104de573d6000803e3d6000fd5b505050506040513d601f19601f8201168201806040525081019061050291906112db565b73ffffffffffffffffffffffffffffffffffffffff1614610558576040517f08c379a000000000000000000000000000000000000000000000000000000000815260040161054f90611536565b60405180910390fd5b600115156003600084815260200190815260200160002060050160149054906101000a900460ff161515146105c2576040517f08c379a00000000000000000000000000000000000000000000000000000000081526004016105b9906115a2565b60405180910390fd5b60008111610605576040517f08c379a00000000000000000000000000000000000000000000000000000000081526004016105fc9061160e565b60405180910390fd5b60006003600084815260200190815260200160002090508181600401819055508060010160009054906101000a900473ffffffffffffffffffffffffffffffffffffffff1673ffffffffffffffffffffffffffffffffffffffff166323b872dd333084600201546040518463ffffffff1660e01b815260040161068a9392919061162e565b600060405180830381600087803b1580156106a457600080fd5b505af11580156106b8573d6000803e3d6000fd5b50505050338160050160006101000a81548173ffffffffffffffffffffffffffffffffffffffff021916908373ffffffffffffffffffffffffffffffffffffffff16021790555060008160050160146101000a81548160ff0219169083151502179055503373ffffffffffffffffffffffffffffffffffffffff168160010160009054906101000a900473ffffffffffffffffffffffffffffffffffffffff1673ffffffffffffffffffffffffffffffffffffffff167f655a0cf9c8db81512be9a76dc1c5ae5380b8816ce6ad659cd61b715e2999d59a858460020154866040516107a593929190611665565b60405180910390a35060016000819055505050565b60036020528060005260406000206000915090508060000154908060010160009054906101000a900473ffffffffffffffffffffffffffffffffffffffff16908060020154908060030154908060040154908060050160009054906101000a900473ffffffffffffffffffffffffffffffffffffffff16908060050160149054906101000a900460ff16905087565b6002600054141561088f576040517f08c379a0000000000000000000000000000000000000000000000000000000008152600401610886906114a4565b60405180910390fd5b6002600081905550600015156003600083815260200190815260200160002060050160149054906101000a900460ff16151514610901576040517f08c379a00000000000000000000000000000000000000000000000000000000081526004016108f8906115a2565b60405180910390fd5b60008111801561091357506002548111155b610952576040517f08c379a0000000000000000000000000000000000000000000000000000000008152600401610949906116e8565b60405180910390fd5b3373ffffffffffffffffffffffffffffffffffffffff166003600083815260200190815260200160002060050160009054906101000a900473ffffffffffffffffffffffffffffffffffffffff1673ffffffffffffffffffffffffffffffffffffffff1614156109f7576040517f08c379a00000000000000000000000000000000000000000000000000000000081526004016109ee90611754565b60405180910390fd5b6000610a0282610315565b9050600060036000848152602001908152602001600020905034821115610a5e576040517f08c379a0000000000000000000000000000000000000000000000000000000008152600401610a55906117c0565b60405180910390fd5b8060050160009054906101000a900473ffffffffffffffffffffffffffffffffffffffff1673ffffffffffffffffffffffffffffffffffffffff166108fc82600301549081150290604051600060405180830381858888f19350505050158015610acc573d6000803e3d6000fd5b50600160009054906101000a900473ffffffffffffffffffffffffffffffffffffffff1673ffffffffffffffffffffffffffffffffffffffff166108fc826003015484610b1991906117e0565b9081150290604051600060405180830381858888f19350505050158015610b44573d6000803e3d6000fd5b508060010160009054906101000a900473ffffffffffffffffffffffffffffffffffffffff1673ffffffffffffffffffffffffffffffffffffffff166323b872dd303384600201546040518463ffffffff1660e01b8152600401610baa9392919061162e565b600060405180830381600087803b158015610bc457600080fd5b505af1158015610bd8573d6000803e3d6000fd5b5050505060018160050160146101000a81548160ff021916908315150217905550806004015481600301819055503373ffffffffffffffffffffffffffffffffffffffff168160050160009054906101000a900473ffffffffffffffffffffffffffffffffffffffff1673ffffffffffffffffffffffffffffffffffffffff168260010160009054906101000a900473ffffffffffffffffffffffffffffffffffffffff1673ffffffffffffffffffffffffffffffffffffffff167f8b4c9c8a607d67b321582dd8461041b1dc2ceeca70c8b7f37f8e02095cf2e76d8685600201548660030154604051610cce93929190611665565b60405180910390a45050600160008190555050565b60026000541415610d29576040517f08c379a0000000000000000000000000000000000000000000000000000000008152600401610d20906114a4565b60405180910390fd5b600260008190555060008111610d74576040517f08c379a0000000000000000000000000000000000000000000000000000000008152600401610d6b9061160e565b60405180910390fd5b60026000815480929190610d8790611814565b91905055508273ffffffffffffffffffffffffffffffffffffffff166323b872dd3330856040518463ffffffff1660e01b8152600401610dc99392919061162e565b600060405180830381600087803b158015610de357600080fd5b505af1158015610df7573d6000803e3d6000fd5b5050505060008190506040518060e0016040528060025481526020018573ffffffffffffffffffffffffffffffffffffffff1681526020018481526020018381526020018281526020013373ffffffffffffffffffffffffffffffffffffffff168152602001600015158152506003600060025481526020019081526020016000206000820151816000015560208201518160010160006101000a81548173ffffffffffffffffffffffffffffffffffffffff021916908373ffffffffffffffffffffffffffffffffffffffff16021790555060408201518160020155606082015181600301556080820151816004015560a08201518160050160006101000a81548173ffffffffffffffffffffffffffffffffffffffff021916908373ffffffffffffffffffffffffffffffffffffffff16021790555060c08201518160050160146101000a81548160ff0219169083151502179055509050503373ffffffffffffffffffffffffffffffffffffffff168473ffffffffffffffffffffffffffffffffffffffff167f655a0cf9c8db81512be9a76dc1c5ae5380b8816ce6ad659cd61b715e2999d59a6002548686604051610fb593929190611665565b60405180910390a3506001600081905550505050565b600080fd5b6000819050919050565b610fe381610fd0565b8114610fee57600080fd5b50565b60008135905061100081610fda565b92915050565b60006020828403121561101c5761101b610fcb565b5b600061102a84828501610ff1565b91505092915050565b600073ffffffffffffffffffffffffffffffffffffffff82169050919050565b600061105e82611033565b9050919050565b61106e81611053565b82525050565b60006020820190506110896000830184611065565b92915050565b61109881610fd0565b82525050565b60006020820190506110b3600083018461108f565b92915050565b60006110c482611033565b9050919050565b6110d4816110b9565b82525050565b60006020820190506110ef60008301846110cb565b92915050565b6000806040838503121561110c5761110b610fcb565b5b600061111a85828601610ff1565b925050602061112b85828601610ff1565b9150509250929050565b6000819050919050565b600061115a61115561115084611033565b611135565b611033565b9050919050565b600061116c8261113f565b9050919050565b600061117e82611161565b9050919050565b61118e81611173565b82525050565b60008115159050919050565b6111a981611194565b82525050565b600060e0820190506111c4600083018a61108f565b6111d16020830189611185565b6111de604083018861108f565b6111eb606083018761108f565b6111f8608083018661108f565b61120560a08301856110cb565b61121260c08301846111a0565b98975050505050505050565b600061122982611053565b9050919050565b6112398161121e565b811461124457600080fd5b50565b60008135905061125681611230565b92915050565b60008060006060848603121561127557611274610fcb565b5b600061128386828701611247565b935050602061129486828701610ff1565b92505060406112a586828701610ff1565b9150509250925092565b6112b881611053565b81146112c357600080fd5b50565b6000815190506112d5816112af565b92915050565b6000602082840312156112f1576112f0610fcb565b5b60006112ff848285016112c6565b91505092915050565b7f4e487b7100000000000000000000000000000000000000000000000000000000600052601160045260246000fd5b600061134282610fd0565b915061134d83610fd0565b9250827fffffffffffffffffffffffffffffffffffffffffffffffffffffffffffffffff0382111561138257611381611308565b5b828201905092915050565b600061139882610fd0565b91506113a383610fd0565b9250817fffffffffffffffffffffffffffffffffffffffffffffffffffffffffffffffff04831182151516156113dc576113db611308565b5b828202905092915050565b7f4e487b7100000000000000000000000000000000000000000000000000000000600052601260045260246000fd5b600061142182610fd0565b915061142c83610fd0565b92508261143c5761143b6113e7565b5b828204905092915050565b600082825260208201905092915050565b7f5265656e7472616e637947756172643a207265656e7472616e742063616c6c00600082015250565b600061148e601f83611447565b915061149982611458565b602082019050919050565b600060208201905081810360008301526114bd81611481565b9050919050565b7f596f75206d757374206f776e2074686520746f6b656e20746f206c697374206960008201527f7400000000000000000000000000000000000000000000000000000000000000602082015250565b6000611520602183611447565b915061152b826114c4565b604082019050919050565b6000602082019050818103600083015261154f81611513565b9050919050565b7f4974656d20697320616c726561647920736f6c64000000000000000000000000600082015250565b600061158c601483611447565b915061159782611556565b602082019050919050565b600060208201905081810360008301526115bb8161157f565b9050919050565b7f5072696365206d7573742062652067726561746572207468616e203000000000600082015250565b60006115f8601c83611447565b9150611603826115c2565b602082019050919050565b60006020820190508181036000830152611627816115eb565b9050919050565b60006060820190506116436000830186611065565b6116506020830185611065565b61165d604083018461108f565b949350505050565b600060608201905061167a600083018661108f565b611687602083018561108f565b611694604083018461108f565b949350505050565b7f4974656d20646f6573206e6f7420657869737400000000000000000000000000600082015250565b60006116d2601383611447565b91506116dd8261169c565b602082019050919050565b60006020820190508181036000830152611701816116c5565b9050919050565b7f596f752063616e6e6f742062757920796f7572206f776e206974656d00000000600082015250565b600061173e601c83611447565b915061174982611708565b602082019050919050565b6000602082019050818103600083015261176d81611731565b9050919050565b7f4e6f7420656e6f756768206d6f6e657920746f20627579206974656d00000000600082015250565b60006117aa601c83611447565b91506117b582611774565b602082019050919050565b600060208201905081810360008301526117d98161179d565b9050919050565b60006117eb82610fd0565b91506117f683610fd0565b92508282101561180957611808611308565b5b828203905092915050565b600061181f82610fd0565b91507fffffffffffffffffffffffffffffffffffffffffffffffffffffffffffffffff82141561185257611851611308565b5b60018201905091905056fea2646970667358221220d1d357c8438c2e2dae4833cc4e944cc9b7b8151430c075bd443645af1249a23b64736f6c63430008090033",
  "linkReferences": {},
  "deployedLinkReferences": {}
}