{
  "_format": "hh-sol-artifact-1",
  "contractName": "NFT",
  "sourceName": "contracts/NFT.sol",
  "abi": [
    {
      "inputs": [],
      "stateMutability": "nonpayable",
      "type": "constructor"
    },
    {
      "anonymous": false,
      "inputs": [
        {
          "indexed": true,
          "internalType": "address",
          "name": "owner",
          "type": "address"
        },
        {
          "indexed": true,
          "internalType": "address",
          "name": "approved",
          "type": "address"
        },
        {
          "indexed": true,
          "internalType": "uint256",
          "name": "tokenId",
          "type": "uint256"
        }
      ],
      "name": "Approval",
      "type": "event"
    },
    {
      "anonymous": false,
      "inputs": [
        {
          "indexed": true,
          "internalType": "address",
          "name": "owner",
          "type": "address"
        },
        {
          "indexed": true,
          "internalType": "address",
          "name": "operator",
          "type": "address"
        },
        {
          "indexed": false,
          "internalType": "bool",
          "name": "approved",
          "type": "bool"
        }
      ],
      "name": "ApprovalForAll",
      "type": "event"
    },
    {
      "anonymous": false,
      "inputs": [
        {
          "indexed": true,
          "internalType": "address",
          "name": "previousOwner",
          "type": "address"
        },
        {
          "indexed": true,
          "internalType": "address",
          "name": "newOwner",
          "type": "address"
        }
      ],
      "name": "OwnershipTransferred",
      "type": "event"
    },
    {
      "anonymous": false,
      "inputs": [
        {
          "indexed": true,
          "internalType": "address",
          "name": "from",
          "type": "address"
        },
        {
          "indexed": true,
          "internalType": "address",
          "name": "to",
          "type": "address"
        },
        {
          "indexed": true,
          "internalType": "uint256",
          "name": "tokenId",
          "type": "uint256"
        }
      ],
      "name": "Transfer",
      "type": "event"
    },
    {
      "inputs": [
        {
          "internalType": "address",
          "name": "to",
          "type": "address"
        },
        {
          "internalType": "uint256",
          "name": "tokenId",
          "type": "uint256"
        }
      ],
      "name": "approve",
      "outputs": [],
      "stateMutability": "nonpayable",
      "type": "function"
    },
    {
      "inputs": [
        {
          "internalType": "address",
          "name": "owner",
          "type": "address"
        }
      ],
      "name": "balanceOf",
      "outputs": [
        {
          "internalType": "uint256",
          "name": "",
          "type": "uint256"
        }
      ],
      "stateMutability": "view",
      "type": "function"
    },
    {
      "inputs": [
        {
          "internalType": "uint256",
          "name": "tokenId",
          "type": "uint256"
        }
      ],
      "name": "getApproved",
      "outputs": [
        {
          "internalType": "address",
          "name": "",
          "type": "address"
        }
      ],
      "stateMutability": "view",
      "type": "function"
    },
    {
      "inputs": [
        {
          "internalType": "uint256",
          "name": "_tokenId",
          "type": "uint256"
        }
      ],
      "name": "getOwner",
      "outputs": [
        {
          "internalType": "address",
          "name": "",
          "type": "address"
        }
      ],
      "stateMutability": "view",
      "type": "function"
    },
    {
      "inputs": [
        {
          "internalType": "address",
          "name": "owner",
          "type": "address"
        },
        {
          "internalType": "address",
          "name": "operator",
          "type": "address"
        }
      ],
      "name": "isApprovedForAll",
      "outputs": [
        {
          "internalType": "bool",
          "name": "",
          "type": "bool"
        }
      ],
      "stateMutability": "view",
      "type": "function"
    },
    {
      "inputs": [
        {
          "internalType": "address",
          "name": "recipient",
          "type": "address"
        },
        {
          "internalType": "string",
          "name": "_tokenURI",
          "type": "string"
        }
      ],
      "name": "mint",
      "outputs": [
        {
          "internalType": "uint256",
          "name": "",
          "type": "uint256"
        }
      ],
      "stateMutability": "nonpayable",
      "type": "function"
    },
    {
      "inputs": [],
      "name": "name",
      "outputs": [
        {
          "internalType": "string",
          "name": "",
          "type": "string"
        }
      ],
      "stateMutability": "view",
      "type": "function"
    },
    {
      "inputs": [],
      "name": "owner",
      "outputs": [
        {
          "internalType": "address",
          "name": "",
          "type": "address"
        }
      ],
      "stateMutability": "view",
      "type": "function"
    },
    {
      "inputs": [
        {
          "internalType": "uint256",
          "name": "tokenId",
          "type": "uint256"
        }
      ],
      "name": "ownerOf",
      "outputs": [
        {
          "internalType": "address",
          "name": "",
          "type": "address"
        }
      ],
      "stateMutability": "view",
      "type": "function"
    },
    {
      "inputs": [],
      "name": "renounceOwnership",
      "outputs": [],
      "stateMutability": "nonpayable",
      "type": "function"
    },
    {
      "inputs": [
        {
          "internalType": "address",
          "name": "from",
          "type": "address"
        },
        {
          "internalType": "address",
          "name": "to",
          "type": "address"
        },
        {
          "internalType": "uint256",
          "name": "tokenId",
          "type": "uint256"
        }
      ],
      "name": "safeTransferFrom",
      "outputs": [],
      "stateMutability": "nonpayable",
      "type": "function"
    },
    {
      "inputs": [
        {
          "internalType": "address",
          "name": "from",
          "type": "address"
        },
        {
          "internalType": "address",
          "name": "to",
          "type": "address"
        },
        {
          "internalType": "uint256",
          "name": "tokenId",
          "type": "uint256"
        },
        {
          "internalType": "bytes",
          "name": "data",
          "type": "bytes"
        }
      ],
      "name": "safeTransferFrom",
      "outputs": [],
      "stateMutability": "nonpayable",
      "type": "function"
    },
    {
      "inputs": [
        {
          "internalType": "address",
          "name": "operator",
          "type": "address"
        },
        {
          "internalType": "bool",
          "name": "approved",
          "type": "bool"
        }
      ],
      "name": "setApprovalForAll",
      "outputs": [],
      "stateMutability": "nonpayable",
      "type": "function"
    },
    {
      "inputs": [
        {
          "internalType": "bytes4",
          "name": "interfaceId",
          "type": "bytes4"
        }
      ],
      "name": "supportsInterface",
      "outputs": [
        {
          "internalType": "bool",
          "name": "",
          "type": "bool"
        }
      ],
      "stateMutability": "view",
      "type": "function"
    },
    {
      "inputs": [],
      "name": "symbol",
      "outputs": [
        {
          "internalType": "string",
          "name": "",
          "type": "string"
        }
      ],
      "stateMutability": "view",
      "type": "function"
    },
    {
      "inputs": [],
      "name": "tokenCount",
      "outputs": [
        {
          "internalType": "uint256",
          "name": "_value",
          "type": "uint256"
        }
      ],
      "stateMutability": "view",
      "type": "function"
    },
    {
      "inputs": [
        {
          "internalType": "uint256",
          "name": "tokenId",
          "type": "uint256"
        }
      ],
      "name": "tokenURI",
      "outputs": [
        {
          "internalType": "string",
          "name": "",
          "type": "string"
        }
      ],
      "stateMutability": "view",
      "type": "function"
    },
    {
      "inputs": [
        {
          "internalType": "address",
          "name": "from",
          "type": "address"
        },
        {
          "internalType": "address",
          "name": "to",
          "type": "address"
        },
        {
          "internalType": "uint256",
          "name": "tokenId",
          "type": "uint256"
        }
      ],
      "name": "transferFrom",
      "outputs": [],
      "stateMutability": "nonpayable",
      "type": "function"
    },
    {
      "inputs": [
        {
          "internalType": "address",
          "name": "newOwner",
          "type": "address"
        }
      ],
      "name": "transferOwnership",
      "outputs": [],
      "stateMutability": "nonpayable",
      "type": "function"
    }
  ],
  "bytecode": "0x60806040523480156200001157600080fd5b506040518060400160405280600881526020017f44417070204e46540000000000000000000000000000000000000000000000008152506040518060400160405280600481526020017f4441505000000000000000000000000000000000000000000000000000000000815250816000908051906020019062000096929190620001a6565b508060019080519060200190620000af929190620001a6565b505050620000d2620000c6620000d860201b60201c565b620000e060201b60201c565b620002bb565b600033905090565b6000600760009054906101000a900473ffffffffffffffffffffffffffffffffffffffff16905081600760006101000a81548173ffffffffffffffffffffffffffffffffffffffff021916908373ffffffffffffffffffffffffffffffffffffffff1602179055508173ffffffffffffffffffffffffffffffffffffffff168173ffffffffffffffffffffffffffffffffffffffff167f8be0079c531659141344cd1fd0a4f28419497f9722a3daafe3b4186f6b6457e060405160405180910390a35050565b828054620001b49062000285565b90600052602060002090601f016020900481019282620001d8576000855562000224565b82601f10620001f357805160ff191683800117855562000224565b8280016001018555821562000224579182015b828111156200022357825182559160200191906001019062000206565b5b50905062000233919062000237565b5090565b5b808211156200025257600081600090555060010162000238565b5090565b7f4e487b7100000000000000000000000000000000000000000000000000000000600052602260045260246000fd5b600060028204905060018216806200029e57607f821691505b60208210811415620002b557620002b462000256565b5b50919050565b612d1480620002cb6000396000f3fe608060405234801561001057600080fd5b50600436106101215760003560e01c80638da5cb5b116100ad578063c41a360a11610071578063c41a360a146102f4578063c87b56dd14610324578063d0def52114610354578063e985e9c514610384578063f2fde38b146103b457610121565b80638da5cb5b1461026257806395d89b41146102805780639f181b5e1461029e578063a22cb465146102bc578063b88d4fde146102d857610121565b806323b872dd116100f457806323b872dd146101c057806342842e0e146101dc5780636352211e146101f857806370a0823114610228578063715018a61461025857610121565b806301ffc9a71461012657806306fdde0314610156578063081812fc14610174578063095ea7b3146101a4575b600080fd5b610140600480360381019061013b9190611be6565b6103d0565b60405161014d9190611c2e565b60405180910390f35b61015e6104b2565b60405161016b9190611ce2565b60405180910390f35b61018e60048036038101906101899190611d3a565b610544565b60405161019b9190611da8565b60405180910390f35b6101be60048036038101906101b99190611def565b61058a565b005b6101da60048036038101906101d59190611e2f565b6106a2565b005b6101f660048036038101906101f19190611e2f565b610702565b005b610212600480360381019061020d9190611d3a565b610722565b60405161021f9190611da8565b60405180910390f35b610242600480360381019061023d9190611e82565b6107d4565b60405161024f9190611ebe565b60405180910390f35b61026061088c565b005b61026a6108a0565b6040516102779190611da8565b60405180910390f35b6102886108ca565b6040516102959190611ce2565b60405180910390f35b6102a661095c565b6040516102b39190611ebe565b60405180910390f35b6102d660048036038101906102d19190611f05565b610968565b005b6102f260048036038101906102ed919061207a565b61097e565b005b61030e60048036038101906103099190611d3a565b6109e0565b60405161031b9190611da8565b60405180910390f35b61033e60048036038101906103399190611d3a565b6109f2565b60405161034b9190611ce2565b60405180910390f35b61036e6004803603810190610369919061219e565b610b05565b60405161037b9190611ebe565b60405180910390f35b61039e600480360381019061039991906121fa565b610b45565b6040516103ab9190611c2e565b60405180910390f35b6103ce60048036038101906103c99190611e82565b610bd9565b005b60007f80ac58cd000000000000000000000000000000000000000000000000000000007bffffffffffffffffffffffffffffffffffffffffffffffffffffffff1916827bffffffffffffffffffffffffffffffffffffffffffffffffffffffff1916148061049b57507f5b5e139f000000000000000000000000000000000000000000000000000000007bffffffffffffffffffffffffffffffffffffffffffffffffffffffff1916827bffffffffffffffffffffffffffffffffffffffffffffffffffffffff1916145b806104ab57506104aa82610c5d565b5b9050919050565b6060600080546104c190612269565b80601f01602080910402602001604051908101604052809291908181526020018280546104ed90612269565b801561053a5780601f1061050f5761010080835404028352916020019161053a565b820191906000526020600020905b81548152906001019060200180831161051d57829003601f168201915b5050505050905090565b600061054f82610cc7565b6004600083815260200190815260200160002060009054906101000a900473ffffffffffffffffffffffffffffffffffffffff169050919050565b600061059582610722565b90508073ffffffffffffffffffffffffffffffffffffffff168373ffffffffffffffffffffffffffffffffffffffff161415610606576040517f08c379a00000000000000000000000000000000000000000000000000000000081526004016105fd9061230d565b60405180910390fd5b8073ffffffffffffffffffffffffffffffffffffffff16610625610d12565b73ffffffffffffffffffffffffffffffffffffffff16148061065457506106538161064e610d12565b610b45565b5b610693576040517f08c379a000000000000000000000000000000000000000000000000000000000815260040161068a9061239f565b60405180910390fd5b61069d8383610d1a565b505050565b6106b36106ad610d12565b82610dd3565b6106f2576040517f08c379a00000000000000000000000000000000000000000000000000000000081526004016106e990612431565b60405180910390fd5b6106fd838383610e68565b505050565b61071d8383836040518060200160405280600081525061097e565b505050565b6000806002600084815260200190815260200160002060009054906101000a900473ffffffffffffffffffffffffffffffffffffffff169050600073ffffffffffffffffffffffffffffffffffffffff168173ffffffffffffffffffffffffffffffffffffffff1614156107cb576040517f08c379a00000000000000000000000000000000000000000000000000000000081526004016107c29061249d565b60405180910390fd5b80915050919050565b60008073ffffffffffffffffffffffffffffffffffffffff168273ffffffffffffffffffffffffffffffffffffffff161415610845576040517f08c379a000000000000000000000000000000000000000000000000000000000815260040161083c9061252f565b60405180910390fd5b600360008373ffffffffffffffffffffffffffffffffffffffff1673ffffffffffffffffffffffffffffffffffffffff168152602001908152602001600020549050919050565b6108946110cf565b61089e600061114d565b565b6000600760009054906101000a900473ffffffffffffffffffffffffffffffffffffffff16905090565b6060600180546108d990612269565b80601f016020809104026020016040519081016040528092919081815260200182805461090590612269565b80156109525780601f1061092757610100808354040283529160200191610952565b820191906000526020600020905b81548152906001019060200180831161093557829003601f168201915b5050505050905090565b60088060000154905081565b61097a610973610d12565b8383611213565b5050565b61098f610989610d12565b83610dd3565b6109ce576040517f08c379a00000000000000000000000000000000000000000000000000000000081526004016109c590612431565b60405180910390fd5b6109da84848484611380565b50505050565b60006109eb82610722565b9050919050565b60606109fd82610cc7565b6000600660008481526020019081526020016000208054610a1d90612269565b80601f0160208091040260200160405190810160405280929190818152602001828054610a4990612269565b8015610a965780601f10610a6b57610100808354040283529160200191610a96565b820191906000526020600020905b815481529060010190602001808311610a7957829003601f168201915b505050505090506000610aa76113dc565b9050600081511415610abd578192505050610b00565b600082511115610af2578082604051602001610ada92919061258b565b60405160208183030381529060405292505050610b00565b610afb846113f3565b925050505b919050565b6000610b0f6110cf565b610b19600861145b565b6000610b256008611471565b9050610b31338261147f565b610b3b818461149d565b8091505092915050565b6000600560008473ffffffffffffffffffffffffffffffffffffffff1673ffffffffffffffffffffffffffffffffffffffff16815260200190815260200160002060008373ffffffffffffffffffffffffffffffffffffffff1673ffffffffffffffffffffffffffffffffffffffff16815260200190815260200160002060009054906101000a900460ff16905092915050565b610be16110cf565b600073ffffffffffffffffffffffffffffffffffffffff168173ffffffffffffffffffffffffffffffffffffffff161415610c51576040517f08c379a0000000000000000000000000000000000000000000000000000000008152600401610c4890612621565b60405180910390fd5b610c5a8161114d565b50565b60007f01ffc9a7000000000000000000000000000000000000000000000000000000007bffffffffffffffffffffffffffffffffffffffffffffffffffffffff1916827bffffffffffffffffffffffffffffffffffffffffffffffffffffffff1916149050919050565b610cd081611511565b610d0f576040517f08c379a0000000000000000000000000000000000000000000000000000000008152600401610d069061249d565b60405180910390fd5b50565b600033905090565b816004600083815260200190815260200160002060006101000a81548173ffffffffffffffffffffffffffffffffffffffff021916908373ffffffffffffffffffffffffffffffffffffffff160217905550808273ffffffffffffffffffffffffffffffffffffffff16610d8d83610722565b73ffffffffffffffffffffffffffffffffffffffff167f8c5be1e5ebec7d5bd14f71427d1e84f3dd0314c0f7b2291e5b200ac8c7c3b92560405160405180910390a45050565b600080610ddf83610722565b90508073ffffffffffffffffffffffffffffffffffffffff168473ffffffffffffffffffffffffffffffffffffffff161480610e215750610e208185610b45565b5b80610e5f57508373ffffffffffffffffffffffffffffffffffffffff16610e4784610544565b73ffffffffffffffffffffffffffffffffffffffff16145b91505092915050565b8273ffffffffffffffffffffffffffffffffffffffff16610e8882610722565b73ffffffffffffffffffffffffffffffffffffffff1614610ede576040517f08c379a0000000000000000000000000000000000000000000000000000000008152600401610ed5906126b3565b60405180910390fd5b600073ffffffffffffffffffffffffffffffffffffffff168273ffffffffffffffffffffffffffffffffffffffff161415610f4e576040517f08c379a0000000000000000000000000000000000000000000000000000000008152600401610f4590612745565b60405180910390fd5b610f5983838361157d565b610f64600082610d1a565b6001600360008573ffffffffffffffffffffffffffffffffffffffff1673ffffffffffffffffffffffffffffffffffffffff1681526020019081526020016000206000828254610fb49190612794565b925050819055506001600360008473ffffffffffffffffffffffffffffffffffffffff1673ffffffffffffffffffffffffffffffffffffffff168152602001908152602001600020600082825461100b91906127c8565b92505081905550816002600083815260200190815260200160002060006101000a81548173ffffffffffffffffffffffffffffffffffffffff021916908373ffffffffffffffffffffffffffffffffffffffff160217905550808273ffffffffffffffffffffffffffffffffffffffff168473ffffffffffffffffffffffffffffffffffffffff167fddf252ad1be2c89b69c2b068fc378daa952ba7f163c4a11628f55a4df523b3ef60405160405180910390a46110ca838383611582565b505050565b6110d7610d12565b73ffffffffffffffffffffffffffffffffffffffff166110f56108a0565b73ffffffffffffffffffffffffffffffffffffffff161461114b576040517f08c379a00000000000000000000000000000000000000000000000000000000081526004016111429061286a565b60405180910390fd5b565b6000600760009054906101000a900473ffffffffffffffffffffffffffffffffffffffff16905081600760006101000a81548173ffffffffffffffffffffffffffffffffffffffff021916908373ffffffffffffffffffffffffffffffffffffffff1602179055508173ffffffffffffffffffffffffffffffffffffffff168173ffffffffffffffffffffffffffffffffffffffff167f8be0079c531659141344cd1fd0a4f28419497f9722a3daafe3b4186f6b6457e060405160405180910390a35050565b8173ffffffffffffffffffffffffffffffffffffffff168373ffffffffffffffffffffffffffffffffffffffff161415611282576040517f08c379a0000000000000000000000000000000000000000000000000000000008152600401611279906128d6565b60405180910390fd5b80600560008573ffffffffffffffffffffffffffffffffffffffff1673ffffffffffffffffffffffffffffffffffffffff16815260200190815260200160002060008473ffffffffffffffffffffffffffffffffffffffff1673ffffffffffffffffffffffffffffffffffffffff16815260200190815260200160002060006101000a81548160ff0219169083151502179055508173ffffffffffffffffffffffffffffffffffffffff168373ffffffffffffffffffffffffffffffffffffffff167f17307eab39ab6107e8899845ad3d59bd9653f200f220920489ca2b5937696c31836040516113739190611c2e565b60405180910390a3505050565b61138b848484610e68565b61139784848484611587565b6113d6576040517f08c379a00000000000000000000000000000000000000000000000000000000081526004016113cd90612968565b60405180910390fd5b50505050565b606060405180602001604052806000815250905090565b60606113fe82610cc7565b60006114086113dc565b905060008151116114285760405180602001604052806000815250611453565b806114328461171e565b60405160200161144392919061258b565b6040516020818303038152906040525b915050919050565b6001816000016000828254019250508190555050565b600081600001549050919050565b61149982826040518060200160405280600081525061187f565b5050565b6114a682611511565b6114e5576040517f08c379a00000000000000000000000000000000000000000000000000000000081526004016114dc906129fa565b60405180910390fd5b8060066000848152602001908152602001600020908051906020019061150c929190611ad7565b505050565b60008073ffffffffffffffffffffffffffffffffffffffff166002600084815260200190815260200160002060009054906101000a900473ffffffffffffffffffffffffffffffffffffffff1673ffffffffffffffffffffffffffffffffffffffff1614159050919050565b505050565b505050565b60006115a88473ffffffffffffffffffffffffffffffffffffffff166118da565b15611711578373ffffffffffffffffffffffffffffffffffffffff1663150b7a026115d1610d12565b8786866040518563ffffffff1660e01b81526004016115f39493929190612a6f565b602060405180830381600087803b15801561160d57600080fd5b505af192505050801561163e57506040513d601f19601f8201168201806040525081019061163b9190612ad0565b60015b6116c1573d806000811461166e576040519150601f19603f3d011682016040523d82523d6000602084013e611673565b606091505b506000815114156116b9576040517f08c379a00000000000000000000000000000000000000000000000000000000081526004016116b090612968565b60405180910390fd5b805181602001fd5b63150b7a0260e01b7bffffffffffffffffffffffffffffffffffffffffffffffffffffffff1916817bffffffffffffffffffffffffffffffffffffffffffffffffffffffff191614915050611716565b600190505b949350505050565b60606000821415611766576040518060400160405280600181526020017f3000000000000000000000000000000000000000000000000000000000000000815250905061187a565b600082905060005b6000821461179857808061178190612afd565b915050600a826117919190612b75565b915061176e565b60008167ffffffffffffffff8111156117b4576117b3611f4f565b5b6040519080825280601f01601f1916602001820160405280156117e65781602001600182028036833780820191505090505b5090505b60008514611873576001826117ff9190612794565b9150600a8561180e9190612ba6565b603061181a91906127c8565b60f81b8183815181106118305761182f612bd7565b5b60200101907effffffffffffffffffffffffffffffffffffffffffffffffffffffffffffff1916908160001a905350600a8561186c9190612b75565b94506117ea565b8093505050505b919050565b61188983836118fd565b6118966000848484611587565b6118d5576040517f08c379a00000000000000000000000000000000000000000000000000000000081526004016118cc90612968565b60405180910390fd5b505050565b6000808273ffffffffffffffffffffffffffffffffffffffff163b119050919050565b600073ffffffffffffffffffffffffffffffffffffffff168273ffffffffffffffffffffffffffffffffffffffff16141561196d576040517f08c379a000000000000000000000000000000000000000000000000000000000815260040161196490612c52565b60405180910390fd5b61197681611511565b156119b6576040517f08c379a00000000000000000000000000000000000000000000000000000000081526004016119ad90612cbe565b60405180910390fd5b6119c26000838361157d565b6001600360008473ffffffffffffffffffffffffffffffffffffffff1673ffffffffffffffffffffffffffffffffffffffff1681526020019081526020016000206000828254611a1291906127c8565b92505081905550816002600083815260200190815260200160002060006101000a81548173ffffffffffffffffffffffffffffffffffffffff021916908373ffffffffffffffffffffffffffffffffffffffff160217905550808273ffffffffffffffffffffffffffffffffffffffff16600073ffffffffffffffffffffffffffffffffffffffff167fddf252ad1be2c89b69c2b068fc378daa952ba7f163c4a11628f55a4df523b3ef60405160405180910390a4611ad360008383611582565b5050565b828054611ae390612269565b90600052602060002090601f016020900481019282611b055760008555611b4c565b82601f10611b1e57805160ff1916838001178555611b4c565b82800160010185558215611b4c579182015b82811115611b4b578251825591602001919060010190611b30565b5b509050611b599190611b5d565b5090565b5b80821115611b76576000816000905550600101611b5e565b5090565b6000604051905090565b600080fd5b600080fd5b60007fffffffff0000000000000000000000000000000000000000000000000000000082169050919050565b611bc381611b8e565b8114611bce57600080fd5b50565b600081359050611be081611bba565b92915050565b600060208284031215611bfc57611bfb611b84565b5b6000611c0a84828501611bd1565b91505092915050565b60008115159050919050565b611c2881611c13565b82525050565b6000602082019050611c436000830184611c1f565b92915050565b600081519050919050565b600082825260208201905092915050565b60005b83811015611c83578082015181840152602081019050611c68565b83811115611c92576000848401525b50505050565b6000601f19601f8301169050919050565b6000611cb482611c49565b611cbe8185611c54565b9350611cce818560208601611c65565b611cd781611c98565b840191505092915050565b60006020820190508181036000830152611cfc8184611ca9565b905092915050565b6000819050919050565b611d1781611d04565b8114611d2257600080fd5b50565b600081359050611d3481611d0e565b92915050565b600060208284031215611d5057611d4f611b84565b5b6000611d5e84828501611d25565b91505092915050565b600073ffffffffffffffffffffffffffffffffffffffff82169050919050565b6000611d9282611d67565b9050919050565b611da281611d87565b82525050565b6000602082019050611dbd6000830184611d99565b92915050565b611dcc81611d87565b8114611dd757600080fd5b50565b600081359050611de981611dc3565b92915050565b60008060408385031215611e0657611e05611b84565b5b6000611e1485828601611dda565b9250506020611e2585828601611d25565b9150509250929050565b600080600060608486031215611e4857611e47611b84565b5b6000611e5686828701611dda565b9350506020611e6786828701611dda565b9250506040611e7886828701611d25565b9150509250925092565b600060208284031215611e9857611e97611b84565b5b6000611ea684828501611dda565b91505092915050565b611eb881611d04565b82525050565b6000602082019050611ed36000830184611eaf565b92915050565b611ee281611c13565b8114611eed57600080fd5b50565b600081359050611eff81611ed9565b92915050565b60008060408385031215611f1c57611f1b611b84565b5b6000611f2a85828601611dda565b9250506020611f3b85828601611ef0565b9150509250929050565b600080fd5b600080fd5b7f4e487b7100000000000000000000000000000000000000000000000000000000600052604160045260246000fd5b611f8782611c98565b810181811067ffffffffffffffff82111715611fa657611fa5611f4f565b5b80604052505050565b6000611fb9611b7a565b9050611fc58282611f7e565b919050565b600067ffffffffffffffff821115611fe557611fe4611f4f565b5b611fee82611c98565b9050602081019050919050565b82818337600083830152505050565b600061201d61201884611fca565b611faf565b90508281526020810184848401111561203957612038611f4a565b5b612044848285611ffb565b509392505050565b600082601f83011261206157612060611f45565b5b813561207184826020860161200a565b91505092915050565b6000806000806080858703121561209457612093611b84565b5b60006120a287828801611dda565b94505060206120b387828801611dda565b93505060406120c487828801611d25565b925050606085013567ffffffffffffffff8111156120e5576120e4611b89565b5b6120f18782880161204c565b91505092959194509250565b600067ffffffffffffffff82111561211857612117611f4f565b5b61212182611c98565b9050602081019050919050565b600061214161213c846120fd565b611faf565b90508281526020810184848401111561215d5761215c611f4a565b5b612168848285611ffb565b509392505050565b600082601f83011261218557612184611f45565b5b813561219584826020860161212e565b91505092915050565b600080604083850312156121b5576121b4611b84565b5b60006121c385828601611dda565b925050602083013567ffffffffffffffff8111156121e4576121e3611b89565b5b6121f085828601612170565b9150509250929050565b6000806040838503121561221157612210611b84565b5b600061221f85828601611dda565b925050602061223085828601611dda565b9150509250929050565b7f4e487b7100000000000000000000000000000000000000000000000000000000600052602260045260246000fd5b6000600282049050600182168061228157607f821691505b602082108114156122955761229461223a565b5b50919050565b7f4552433732313a20617070726f76616c20746f2063757272656e74206f776e6560008201527f7200000000000000000000000000000000000000000000000000000000000000602082015250565b60006122f7602183611c54565b91506123028261229b565b604082019050919050565b60006020820190508181036000830152612326816122ea565b9050919050565b7f4552433732313a20617070726f76652063616c6c6572206973206e6f7420746f60008201527f6b656e206f776e6572206e6f7220617070726f76656420666f7220616c6c0000602082015250565b6000612389603e83611c54565b91506123948261232d565b604082019050919050565b600060208201905081810360008301526123b88161237c565b9050919050565b7f4552433732313a2063616c6c6572206973206e6f7420746f6b656e206f776e6560008201527f72206e6f7220617070726f766564000000000000000000000000000000000000602082015250565b600061241b602e83611c54565b9150612426826123bf565b604082019050919050565b6000602082019050818103600083015261244a8161240e565b9050919050565b7f4552433732313a20696e76616c696420746f6b656e2049440000000000000000600082015250565b6000612487601883611c54565b915061249282612451565b602082019050919050565b600060208201905081810360008301526124b68161247a565b9050919050565b7f4552433732313a2061646472657373207a65726f206973206e6f74206120766160008201527f6c6964206f776e65720000000000000000000000000000000000000000000000602082015250565b6000612519602983611c54565b9150612524826124bd565b604082019050919050565b600060208201905081810360008301526125488161250c565b9050919050565b600081905092915050565b600061256582611c49565b61256f818561254f565b935061257f818560208601611c65565b80840191505092915050565b6000612597828561255a565b91506125a3828461255a565b91508190509392505050565b7f4f776e61626c653a206e6577206f776e657220697320746865207a65726f206160008201527f6464726573730000000000000000000000000000000000000000000000000000602082015250565b600061260b602683611c54565b9150612616826125af565b604082019050919050565b6000602082019050818103600083015261263a816125fe565b9050919050565b7f4552433732313a207472616e736665722066726f6d20696e636f72726563742060008201527f6f776e6572000000000000000000000000000000000000000000000000000000602082015250565b600061269d602583611c54565b91506126a882612641565b604082019050919050565b600060208201905081810360008301526126cc81612690565b9050919050565b7f4552433732313a207472616e7366657220746f20746865207a65726f2061646460008201527f7265737300000000000000000000000000000000000000000000000000000000602082015250565b600061272f602483611c54565b915061273a826126d3565b604082019050919050565b6000602082019050818103600083015261275e81612722565b9050919050565b7f4e487b7100000000000000000000000000000000000000000000000000000000600052601160045260246000fd5b600061279f82611d04565b91506127aa83611d04565b9250828210156127bd576127bc612765565b5b828203905092915050565b60006127d382611d04565b91506127de83611d04565b9250827fffffffffffffffffffffffffffffffffffffffffffffffffffffffffffffffff0382111561281357612812612765565b5b828201905092915050565b7f4f776e61626c653a2063616c6c6572206973206e6f7420746865206f776e6572600082015250565b6000612854602083611c54565b915061285f8261281e565b602082019050919050565b6000602082019050818103600083015261288381612847565b9050919050565b7f4552433732313a20617070726f766520746f2063616c6c657200000000000000600082015250565b60006128c0601983611c54565b91506128cb8261288a565b602082019050919050565b600060208201905081810360008301526128ef816128b3565b9050919050565b7f4552433732313a207472616e7366657220746f206e6f6e20455243373231526560008201527f63656976657220696d706c656d656e7465720000000000000000000000000000602082015250565b6000612952603283611c54565b915061295d826128f6565b604082019050919050565b6000602082019050818103600083015261298181612945565b9050919050565b7f45524337323155524953746f726167653a2055524920736574206f66206e6f6e60008201527f6578697374656e7420746f6b656e000000000000000000000000000000000000602082015250565b60006129e4602e83611c54565b91506129ef82612988565b604082019050919050565b60006020820190508181036000830152612a13816129d7565b9050919050565b600081519050919050565b600082825260208201905092915050565b6000612a4182612a1a565b612a4b8185612a25565b9350612a5b818560208601611c65565b612a6481611c98565b840191505092915050565b6000608082019050612a846000830187611d99565b612a916020830186611d99565b612a9e6040830185611eaf565b8181036060830152612ab08184612a36565b905095945050505050565b600081519050612aca81611bba565b92915050565b600060208284031215612ae657612ae5611b84565b5b6000612af484828501612abb565b91505092915050565b6000612b0882611d04565b91507fffffffffffffffffffffffffffffffffffffffffffffffffffffffffffffffff821415612b3b57612b3a612765565b5b600182019050919050565b7f4e487b7100000000000000000000000000000000000000000000000000000000600052601260045260246000fd5b6000612b8082611d04565b9150612b8b83611d04565b925082612b9b57612b9a612b46565b5b828204905092915050565b6000612bb182611d04565b9150612bbc83611d04565b925082612bcc57612bcb612b46565b5b828206905092915050565b7f4e487b7100000000000000000000000000000000000000000000000000000000600052603260045260246000fd5b7f4552433732313a206d696e7420746f20746865207a65726f2061646472657373600082015250565b6000612c3c602083611c54565b9150612c4782612c06565b602082019050919050565b60006020820190508181036000830152612c6b81612c2f565b9050919050565b7f4552433732313a20746f6b656e20616c7265616479206d696e74656400000000600082015250565b6000612ca8601c83611c54565b9150612cb382612c72565b602082019050919050565b60006020820190508181036000830152612cd781612c9b565b905091905056fea26469706673582212205efe0f12f30a9d082f74c8a01d0b93d5932301b74f6dabcc66b6d4db9aa3a0cd64736f6c63430008090033",
  "linkReferences": {},
  "deployedLinkReferences": {}
}